:020000022000DC
:10600000402500207D6A0200A9CC0200696A0200D6
:10601000696A0200696A0200696A02000000000001
:10602000000000000000000000000000B56A02004F
:10603000696A020000000000A96C0200696A02009F
:10604000FD6C0200FD6C0200FD6C0200FD6C0200A4
:10605000FD6C0200FD6C0200FD6C0200FD6C020094
:10606000FD6C0200FD6C0200FD6C0200FD6C020084
:10607000FD6C0200FD6C0200FD6C0200FD6C020074
:10608000FD6C0200FD6C0200FD6C0200FD6C020064
:10609000FD6C0200FD6C0200FD6C0200FD6C020054
:1060A000FD6C0200FD6C0200FD6C0200FD6C020044
:1060B000FD6C0200FD6C0200FD6C0200FD6C020034
:1060C000FD6C0200FD6C0200FD6C0200FD6C020024
:1060D000FD6C0200FD6C0200FD6C0200FD6C020014
:1060E000FD6C0200FD6C0200FD6C0200FD6C020004
:1060F000FD6C0200FD6C0200FD6C0200FD6C0200F4
:1061000010F8012B11F8013B012A28BF9A42F7D061
:10611000D01A7047014806F000BC00BF76060300A5
:10612000F0B403460A461979DB88006813430C4A29
:106130009A4308BF83F440231F290ED80669876855
:10614000346801258D4023F48012DB074CBF2C43BB
:10615000AC4334603B68F0BC1847F0BC704700BFEC
:106160000100100037B5354C204609F040FB0028EF
:1061700061D0204609F03BFB00285CD0304809F094
:1061800036FB002857D02F484FF4B011FFF7C8FF57
:106190002D484FF48031FFF7C3FF2C4A2C4B53603E
:1061A0004FF400739360A368DB691BB12749012298
:1061B00020469847A3689D696DB123691F481B68F5
:1061C00013F4007F14BF4FF000734FF080634FF063
:1061D000A0720921A8471A4C1E4806F09EFBA5682C
:1061E0002B6813B30DF1070120469847E8B99DF8D5
:1061F0000730622B19D1184806F08FFB4FF480400E
:10620000002105F069FB4FF080435722C3F81C259D
:10621000BFF34F8F1149124BCA6802F4E062134377
:10622000CB60BFF34F8F00BFFDE74FF4A470002198
:1062300005F052FBD4E703B030BD00BF840103007A
:10624000A00103007004030068040300F8080020A4
:1062500015610200880603009606030000ED00E0C9
:106260000400FA0508B5024806F057FB002008BDF7
:10627000AB060300014B1B68184700BFD800002085
:1062800030B585B004460D4610220021684609F05D
:106290009FFE02238DF802302A46044B01932146CB
:1062A000684605F0B7FE05B030BD00BF756202005C
:1062B000014B1860704700BFD80000202DE9F0475F
:1062C000068B0446300790460AD501290CBF46F0DC
:1062D000100646F02006268388F31188BDE8F08773
:1062E000022906F0070640F08980204606F03DFBB3
:1062F00005285FD801A353F820F000BFD96202003F
:10630000FD630200B563020079630200916302003D
:10631000A363020001F007035A1F012A1DD80022BF
:10632000062B256821F00701C4E9002209D135B107
:106330002B46628B013262831B68002BF9D141F03E
:1063400002012183204606F010FB4FF000090028CF
:1063500062D041F0200121835EE0042B09D121F0BD
:1063600007012183204606F000FB10B141F0200117
:1063700021830025A9464FE02369D3F80090238BA1
:1063800023F0070343F00603238300252F4643E051
:106390002369D3F80490238B23F0070343F004030D
:1063A000F2E72369D3F80890238B23F0070343F027
:1063B0000503E9E70025A946E8E7012243F00803C1
:1063C000238388F31188002A34D1002D45D1B9F1F7
:1063D000000F02D029492046C847EFF31188202337
:1063E00083F31288238B23F008039BB22383D906FF
:1063F0003BD523F01002228303F007066769218B47
:10640000002F87DA0023256821F00701C4E9003353
:1064100041F0010121839946238B03F0070AB2451D
:1064200002D0A268002AC8D115B9B9F1000FDED098
:106430000022C3E7A1680029C7D00E680029C4D094
:10644000D1F804803B4652462046C0471EB133680F
:1064500031461E46F2E73346FAE729463B465246A6
:1064600020462D6806F0ADFAAFE79A067FF534AF07
:1064700023F02002228303F0070636E7EDC902006D
:10648000014B0360002070477804030007B51B49E7
:106490001B4806F0BFFD70BB1A49194806F0BAFD4B
:1064A00048BB1949164806F0B5FD20BB17491448EA
:1064B00006F0B0FDF8B90146154A114807F0E6F8B4
:1064C000C8B9024613490E48012307F0B8F990B93C
:1064D00001230093014602230948EF2206F0A8FC9D
:1064E00048B9074806F0CDFC28B9054803B05DF867
:1064F00004EB06F0F6BC03B000BD00BF5001002065
:106500006404002038010020200100200801002040
:10651000DC000020E706030008B50348034A002119
:10652000121A06F0B9FB08BDF80400200011002083
:106530000748084A084908B5121A06F0AFFB074891
:10654000074A0849BDE80840121A06F0A7BB00BF79
:1065500000000020F8040020100D030000000020BF
:1065600000000020100D030070B505460C46D9B19F
:1065700006F0D0F9D4E901232168144806F0CDF9DA
:1065800006F0C8F9D4E90423E168114806F0C5F91A
:1065900006F0C0F9E1690F4806F0BFF906F0BAF954
:1065A000A1690D4806F0B9F9012D08D1EFF3058670
:1065B00006F0B0F90948A6F1100106F0AEF921463F
:1065C0002846BDE8704003F0FFBF00BF000703008E
:1065D0003007030060070300700703009F070300F4
:1065E00030BFFFF7FDBF00BF2DE9F843384D8046AF
:1065F0008946174606F08EF9364806F08EF9AB6AE2
:10660000DE0628D506F086F9334806F086F911240F
:10661000AB6A1D0705D506F07DF9304806F07DF917
:1066200012242B4EB36A980717D506F073F92C483D
:1066300006F073F9756BB36A190646D506F06AF968
:106640002848294606F069F9B9F1000F01D08023E6
:10665000B362132403E01024DAE76FF015051C4E33
:10666000B36ADA0705D506F055F91F4806F055F963
:106670001424B36A9B0605D506F04CF91B4806F0B6
:106680004CF91524124B9A6AD60602D49A6A9007DE
:106690000AD55B68190507D54146284600F0A8FAD7
:1066A00010B180F309880224094B9A6A920642BF0E
:1066B0005A6A22F400525A629A6A42F0FF029A62BF
:1066C00000233B702046BDE8F8836FF01505C0E756
:1066D00000ED00E0B3070300CA070300FE07030054
:1066E000120803002B08030042080300620803009D
:1066F00010B5244C06F00EF9234806F00EF9A36AF3
:1067000099013CD506F006F9204806F006F91E204E
:10671000A36ADA0105D506F0FDF81D4806F0FDF87C
:106720001F20184CA36A1B0305D506F0F3F819487F
:1067300006F0F3F82120A36A590305D506F0EAF81C
:10674000154806F0EAF822200E4CA36A9A0305D5F4
:1067500006F0E0F8114806F0E0F82320A36ADB0316
:1067600005D506F0D7F80E4806F0D7F82420054ADC
:10677000936A6FEA03436FEA1343936210BD1D20CF
:10678000C6E700BF00ED00E092080300AB0803007D
:10679000BF080300DA080300F90803001F0903001B
:1067A0003A090300F8B52C4C06460D4606F0B2F83F
:1067B0002A4806F0B2F8A36ADA0441D506F0AAF82E
:1067C000274806F0AAF81720A36A1B0505D506F08E
:1067D000A1F8244806F0A1F818201F4CA36A9F05D1
:1067E00013D506F097F8204806F097F8A76BA36A30
:1067F000180409D506F08EF81C48394606F08DF8C5
:1068000016B14FF40043A3621920134CA36A590533
:1068100005D506F07FF8164806F07FF81A20A36A1F
:10682000DA050FD506F076F8124806F076F81B2048
:10683000094A936A43F47F43936200232B70F8BDA7
:106840001620C1E7A36A9B04F2D506F063F80A4854
:1068500006F063F81C20EBE700ED00E0660903009A
:106860007D090300FE0703008F090300A909030047
:10687000BF090300DB090300620803002DE9F041B2
:10688000674B8AB05F68002585F3118802F07F436B
:10689000B3F17F4F08D1140726D5500710D406F066
:1068A00039F8604806F039F806F034F85E4806F02A
:1068B00034F8002108460AB0BDE8F041FFF754BEA5
:1068C0000C46002CF0D0C7F308064FF00008F31E6A
:1068D0008DF80780092B00F29180DFE803F0088330
:1068E000877F8F8F8F8F8F8B04460125E9E706F016
:1068F00011F84B4E4D4806F010F88DF80780F36AFA
:106900009A0706D506F006F8494806F006F800236F
:106910002CE0F36A002B03DA05F0FCFF4548F4E7AE
:10692000F36A5B00F3D505F0F5FF434805F0F5FF8A
:106930007369A26943F480737361BFF34F8FBFF330
:106940006F8F736932F8022C23F480737361BFF385
:106950004F8FBFF36F8F4DF602739A4226D105F029
:10696000D9FF2168354805F0D8FF23689DF8072036
:10697000CAB902AE04F1200720686168324603C23A
:106980000834BC421646F7D1099A002D44D0C2F310
:10699000080121B96FEA52226FEA4222099202A944
:1069A0001846FFF7E1FD0AB0BDE8F081B36ADBB23B
:1069B00033B10DF1070201212046FFF715FE0FE06C
:1069C000B36A13F47F4F05D00DF107010120FFF7E3
:1069D000E9FE05E0B36AB3F5803F98D3FFF788FE80
:1069E0000346C3E70DF107020021E5E70DF10701BA
:1069F0000020ECE705F08EFF114886E705F08AFFDE
:106A0000104B1149114817F4F87FA6F1100208BF86
:106A1000194605F082FF7AE76FF30802BEE700BF70
:106A200000ED00E0220A03004E0A03008B0A030077
:106A3000A30A0300C50A0300D40A0300F40A0300F2
:106A4000110B0300F4090300090A0300360B0300CD
:106A5000044B5A6942F010025A615A6922F0080246
:106A60005A61704700ED00E0EFF30880EFF3098111
:106A700001B57246FFF702FF01BD00BF0B4880F36E
:106A8000088803F07BF9202080F3118808484FF430
:106A90000461401880F30988EFF314800221084351
:106AA00080F31488BFF36F8F00F06AF84025002050
:106AB000801700201EF0040F0CBFEFF30880EFF3E7
:106AC0000980816911F8021C0229FFD001B57246C4
:106AD00006F0E6F801BD00BF40B2002807DB044A1B
:106AE0004109012300F01F00834042F82130704724
:106AF00000E100E040B200280CDB4309064900F049
:106B00001F0020330122824041F82320BFF34F8F22
:106B1000BFF36F8F704700BF00E100E0054B4209F3
:106B200000F01F0053F82220012303FA00F0104068
:106B3000704700BF00E100E040B20028ACBF00F1A8
:106B40006040074B01F10101ACBF00F5614000F06E
:106B50000F004FEA4111B4BF195480F80013704779
:106B600014ED00E0044B054A23F07F039360BFF36C
:106B70004F8FBFF36F8F70470060020000ED00E0A1
:106B800008B5FFF7EFFF0B4AD2F8883023F4700303
:106B9000C2F88830EFF3148323F0040383F31488DE
:106BA000BFF36F8FFFF7B8FCFFF7C2FC06F0A9F840
:106BB00003F006FE00ED00E042F8203C009B42F8A6
:106BC0001C3C0A49019B42F8183C029B42F8143CC9
:106BD00021F001014FF0807342F8043C42F8081C98
:106BE0000023203A0265C0F88C30704785CC020043
:106BF000094B0246986870B112F1160FC06E05D0AD
:106C0000A0F140039A4205D3824203D2814228BFB9
:106C100000207047002070479410002008B50B4BEF
:106C20000E461546986000F087F82C4686F30988D2
:106C30000020044B98472046002100220023024CEC
:106C400020470000C5CC020085CC02009410002033
:106C5000014B10221A61704700ED00E0054B5A69A4
:106C60009B689A421FBF044A536843F080535360A5
:106C7000704700BF9410002000ED00E0084B9B68B7
:106C800083420BD1EFF3058343B1064B5A6842F0C0
:106C900080525A605A6A22F400425A6208F0CFBF0A
:106CA0009410002000ED00E012498A684FF0300097
:106CB0001044EFF3098C80E8F01F202080F3128845
:106CC0000D4F4FF000664A698A603E60D2F88C0032
:106CD0000023C2F88C3080F3118804B5104600F010
:106CE0002BF8BDE8044002F1300090E8F01F8CF36F
:106CF000098870479410002004ED00E008B5EFF318
:106D00000583064A103B02EBC30152F83300496881
:106D10008847BDE80840FFF7A1BF00BFF4010300AA
:106D2000024B034A0348012100F068B80000042028
:106D30000000002078040300C36E054A403B136046
:106D4000044B4021C2E901131046012100F060B854
:106D50000409002000000B152DE9F0411B4F0446EB
:106D600000268E4202DB1046BDE8F081606830B339
:106D700053B100F1FF3C10EA0C0F23D11F2821D999
:106D800025681CEA050F1DD1D7F89050C5F30725DB
:106D9000D2B2013DAA4215D805F0BFFF2568D4F84C
:106DA000088025F01F05154348EA000845F0100546
:106DB00048F00100C7F89C500132C7F8A000013626
:106DC0000C34CEE76FF01502CDE700BF00ED00E018
:106DD000044B0522C3F89420BFF34F8FBFF36F8F8E
:106DE000704700BF00ED00E0BFF35F8F024B002251
:106DF000C3F89420704700BF00ED00E010B5034CCD
:106E000001232278FFF7A8FF207010BDD0100020CA
:106E100008B50B4A00231278FFF79EFF10F1160FFA
:106E200006D00849D1F89020C2F30722904200DB37
:106E300008BDC1F89800C1F8A0300130F2E700BFEA
:106E4000D010002000ED00E02DE9F743604C6148D0
:106E5000D4F890300168C3F30723994200F2B5805B
:106E6000FFF7C2FF40680022914220D15A4D584F8F
:106E7000297001A8FFF704FB2C78019B4FF0000953
:106E8000804621464E46B04522D1B9F1000F01D0CF
:106E900029700C464E4A0021D2F89030C3F30723E4
:106EA0009C42C0F28C80FFF793FF00204BE050F82B
:106EB0000C3B23F01F03134343F01003C4F89C3032
:106EC00050F8043C43F00103C4F8A0300132CBE792
:106ED000DA686FF31302B2F5000F49D00BD8B2F5A0
:106EE000001F33D0B2F5800F39D0B2F5801F14D017
:106EF00001361033C7E7B2F1007F42D0B2F1805FB4
:106F000046D0B2F1807FF3D1D3E9012005F005FF2F
:106F100040F0885040F4801007E0D3E9012005F0EC
:106F2000FCFE40F0885040F43020D7F890C0CCF3FD
:106F3000072C0CF1FF3C614531D9B9F1000F00D0AD
:106F400029706FF0150003B0BDE8F083D3E901208C
:106F500005F0E3FE40F0885040F40020E5E7D3E977
:106F6000012005F0DAFE40F0C06040F40030DCE7BC
:106F7000D3E9012005F0D1FE40F0885040F4802094
:106F8000D3E7D3E9012005F0C8FE40F08050F5E7D3
:106F9000D3E9012005F0C1FE40F08850E5E722F07A
:106FA0001F020A4342F0100240F001000131C7F80D
:106FB0009C20C9B2C7F8A0004FF0010998E7C2F8B9
:106FC0009840C2F8A010013466E74FF0FF30BAE7EE
:106FD00000ED00E084040300D010002008B5024B4F
:106FE0001B689847002008BD10090020034B044A85
:106FF0001860937843F002039370704710090020E3
:107000006801002008B50649064821F00701C1F1D2
:10701000005202F5802205F045FC002008BD00BFAB
:107020003F37002014090020014B986868307047F2
:107030009410002070B54169867A0B4D044659B111
:10704000437ADB0706D4242303FB0653DB691B6862
:107050009B689847002363612420214600FB06506B
:10706000BDE8704008F03EBD1C040020024B242205
:1070700002FB0030704700BF1C040020827A064BE0
:10708000242101FB02331A6A1B7D1B33801A23F073
:107090000303B0FBF3F070471C04002038B5074B26
:1070A000827A242404FB0233DB69D3E901240C60D7
:1070B0001568FFF7E3FF04FB005038BD1C040020F7
:1070C0002DE9FF4D05466846039192469B4608F020
:1070D000B4FEDDE90067EFF31188202383F3128803
:1070E0006B8A002B3DD02A8A9A4223D900220023A2
:1070F000284603F02DFE0446E0B188F31188039B77
:10710000002B3DD032463B46684608F0BBFEA27AD3
:10711000244B242101FB02332046DB691B6803A9B1
:107120001D68DDE90023A847606150BB2046FFF7DA
:1071300081FF20E0698A4B1E6B8288F311882B7DCA
:107140002A8A2C6A1B3323F00303521A02FB0344DE
:10715000144B154AEB1A9B105343A3722B7DE37219
:10716000CDE788F3118852465B46284603F0F0FDD0
:1071700004460028C3D10024204604B0BDE8F08DA9
:107180006361012300252381039B6382E27A6560AA
:10719000294604F1180008F01BFF63692582E360AB
:1071A000EAE700BF1C040020398EE338F8B5124D21
:1071B0000024242600B9F8BD00F108024768BFF397
:1071C0005B8F52E8003F591E42E8001CBCF1000FE3
:1071D000F7D1BFF35B8FDBB2012BECD1837AC460B4
:1071E00006FB035344609B6913B198473846E1E7B7
:1071F000FFF720FFFAE700BF1C040020024B01222A
:10720000C3F84025704700BF00E0014048B1054B7E
:10721000054A1B68B3FBF2F35843044B43F00103E8
:10722000184770471803002040420F006004030015
:1072300008B5054A054B136010463F23536002F022
:1072400079FE002008BD00BF20090020FFFF0F00CD
:107250002DE9F04F0446087E91B0002330F08008FD
:107260000E461546039340F042847AB10846FFF774
:107270009DFF737EDA0703D49B070FD5337E6BB96E
:10728000204611B0BDE8F04F05F07BBF4B7E9F0755
:1072900014D5802806D13046FFF788FF404611B04C
:1072A000BDE8F08F04F1280760B9DA076FD5338A9B
:1072B000082B30D03046FFF779FF54E0990704F1EE
:1072C0002807F1D15B074ED50028E4D03046FFF700
:1072D0006DFF94F83930002BE0D094F82930052B5D
:1072E00005D1618DA069C9B205F081FF054694F80A
:1072F0002930032B0AD1638D022B07D1A18DA06900
:107300000022C1F3072105F04FFF0546002384F852
:107310003930A846C2E7F26813683B6053687B6067
:10732000314605F02BFD03900028C4D105F005FD82
:107330000023036094F8283013F0600FC3F3411169
:107340001A4626D0032940F07A836FF0850505F0B0
:10735000F4FC0368002B00F07A83002D00F07483A6
:1073600003980028A7D1384605F0DEFE0346A06941
:10737000002B40F0BA83E38D002B00F0B683039915
:10738000003918BF0121C90107F0ADF978E703966C
:10739000CCE7384605F0C8FE94F82930002840F0C4
:1073A0001581013B0A2BD0D801A151F823F000BF71
:1073B000DB7402004B730200457502004B73020040
:1073C000DD7302004B7302004B7302004B7302002B
:1073D000397402004B730200A3740200618D7F298F
:1073E000B3D8A38D002BB0D1E38D002BADD1D30644
:1073F000ABD194F83030022B02D14FF0FF35A6E725
:10740000A069036993F880301D070FD5C9B205F054
:10741000EEFE054600289AD194F83030012B09D1B0
:10742000638D3BB984F83030002590E7012384F860
:107430003930F1E70123F5E7204605F0F4FC628DD1
:10744000FF2A014681D8E38D002B7FF47EAF94F8AC
:107450002830D8067FF479AF94F83030002BCCD0A8
:10746000C2B9618D94F838308B42DDD0C9B2204664
:1074700006F0C0F8054600287FF469AF628D8242AD
:1074800014BF0223012384F830300521204606F082
:10749000CCFBC9E7D2B2204606F0A5F80028E0D11F
:1074A000ABE702F01F02012A7FF44FAFE38D002B00
:1074B0007FF44BAF628DFF2A3FF647AFA18DFF29C6
:1074C0003FF643AF94F83030022B96D1D2B2C9B216
:1074D000204606F09BFA054639E7E38D002B7FF442
:1074E00034AF94F83030002B87D0012BA18D01D11F
:1074F000002982D112F01F0216D0022A94D1B4F8CA
:107500002A90B9F1000F8FD15FFA81F841462046E9
:1075100006F06FFB421C05463FF419AF4A46414650
:10752000204605F008FE12E700297FF466AF638D60
:10753000012B7FF479AF94F86C3061F3C30384F8C6
:107540006C3071E7E38D002B7FF4FFAE618DA38D6E
:1075500002295FFA83F811D102F01F0258EA0202F1
:107560007FF4F3AEA0690122190A05F01DFE002880
:107570007FF4EBAE012384F8393055E794F83000FE
:1075800000283FF43AAF012802D1002B7FF435AF39
:1075900012F01F020FD0022A7FF446AF00297FF4B9
:1075A00043AF4146204606F00FFB431C05463FF41F
:1075B000CEAE0122B3E7002B7FF41FAF01297FF489
:1075C00033AF94F86C3043F00803B8E70A2B65D862
:1075D000DFE813F00B0064006400640064006400E2
:1075E0003D006400000264001502E38D022B55D1BA
:1075F00094F83030002B51D0012BA18D01D10029FE
:107600004CD112F01F020FD0022A1AD04FF00008FE
:107610000221204606F077FA054618B141460C30A3
:1076200005F0CFFB0395FFE6002937D194F86C30C5
:107630004FEA930808F00208C3F3001348EA03086E
:10764000E6E7C9B2204606F0E3FA8046E0E7D50651
:1076500007D0002308A92046089305F0E4FD089D03
:10766000E0E7638DDDB21B0A013B0E2B16D8DFE885
:1076700013F00F0034009A001500150096009600D4
:107680001500150015001500150015001500310135
:10769000204605F0C8FB18B101281BD00025C1E722
:1076A000D4F87080B8F1000FF8D0B4F82E9098F8A4
:1076B0000030994528BF99464946204606F023FAEE
:1076C00005460028AED04A46414605F10C0005F0BB
:1076D00067FBA7E7D4F87480E4E7204605F0A3FB36
:1076E0006A1C01468246D2B2204605F056FF80460B
:1076F0000028D3D0D0F804B0E18DBBF80230994215
:1077000028BF1946204606F0FEF905460028C5D0D8
:10771000038A428A4169D21AC3685B1AD21A9BF85B
:10772000003000F10C099A4228BF1A4659464846D3
:1077300005F036FBD8F80C80B8F1000F25D0D8F84A
:10774000040083681B6B13B9D8F80080F4E7514636
:1077500098470028F8D0A0F1040B5BF8041F00291B
:10776000F2D008780028EFD06A8A2B8AA2EB030CAB
:107770006A69EB689B1AACEB0302904294BF024625
:1077800092B2484605F00CFBE7E7298AE38D99425F
:107790007FF648AFC91A484605F01DFB42E7204670
:1077A00005F041FB7AE72A460321204605F018FC44
:1077B000054600283FF472AF05F0B0FCB4F82EA0E7
:1077C0006B7DB8B995F814808DF820808DF8213044
:1077D0002B69D04528BFD0461B88ADF822304146E2
:1077E000204606F090F9054600283FF457AF424680
:1077F00008A96AE78DF809306B7A4FF00008032B6F
:107800008DF8088056D1AB7A980753D510210DEB2F
:10781000010007F084FA031EFFF640AF08A8102B02
:10782000DFF8D4C204A94546814628BF1023AB42E5
:1078300030D89B000233DBB28DF80830534528BFA7
:10784000534619462046984606F05DF9054600283D
:107850003FF424AFB8F1020FC34600F10C0A28BF71
:107860004FF0020B5A46A8EB0B0802A9504605F050
:1078700097FACB464FEA580309EB580293451FD1BC
:1078800018F0010F3FF4CEAE19F80310504605F082
:1078900090FAC7E611F8012B4FEA121E02F00F0210
:1078A0001CF80EE000F802EB1CF8022000F8012C96
:1078B0000135BCE72B7DD5F810908DF80830BDE779
:1078C0001BF8011B5046CDE9002305F07AFADDE9EB
:1078D0000023D3E7204605F0A6FA20B101287FF463
:1078E000DDAE636F00E0236F002B3FF4D7AE5B8803
:1078F000B3F5007F7FF6D2AE804B089300238DF85E
:107900002430E36C04F14C0A9A4560D1BDF8228022
:10791000E38D984528BF98464146204606F0F3F887
:10792000054600283FF4BAAE9DF8202000F10C0B6C
:10793000424528BF424608A9584605F031FA9DF84D
:107940002030434594BFA8EB0308A8EB0808B8F122
:10795000000F3FF467AED4F84C90D1453FF462AECF
:10796000B9F1000F3FF45EAE99F815300F2B15D129
:1079700099F81420D9F81010424528BF42465846BD
:1079800005F00EFA99F81430434594BFA8EB0308AC
:10799000A8EB0808B8F1000F3FF444AE236D9945F9
:1079A0003FF440AED9F80090DAE75A7D0F2A0AD1A9
:1079B0001A7DBDF822100A44ADF822209DF824203B
:1079C00001328DF82420226D9A429FD01B68002B33
:1079D000EBD19BE794F83030002B3FF45FAEE18DA4
:1079E00001297FF45BAE94F83880204606F08BF8CE
:1079F000054600283FF416AE41460C3047E702F03A
:107A00001F02012A7FF44AAE204605F0DAFD002865
:107A10003FF444AEA38DFF2B3FF640AE426812798F
:107A20009A42FFF43BAEDAB20F2A3FF637AEE18D51
:107A300001297FF433AE234493F83A80D5E703A9B4
:107A4000204605F0F0FB46E505F077F90568002DC6
:107A50007FF486AC737EE28DD90713D5384605F0E6
:107A600063FB78B97AB12946A06906F018FF014690
:107A7000039000283FF477AC204611B0BDE8F04FEA
:107A800006F046B83AB9204605F065FB00287FF4B9
:107A90006AACFFF7F5BB384605F046FB039D18B905
:107AA0002846FFF783FBEEE7002D3FF45CAC294648
:107AB000204606F02DF810B12846FFF7FCBBA06960
:107AC000036993F8801011F004017FF4D9AB06F03C
:107AD000FAFE054600283FF446AC0146204606F073
:107AE00017F800283FF4CCABE6E780214CE46FF0B8
:107AF0000408FFF7D3BB00BFE50C0300050F05002A
:107B00000B78062B10B410D10369D3F89C20EFF347
:107B10001184202383F312884B6800201860506A78
:107B200048B9C2E9083384F31188044810BC002224
:107B3000002307F031BF03605362F4E7D003002055
:107B40002DE9FF4120274FF0FF3358484FF0FF3217
:107B500001A902F067FF039B1B69D3F89C40236ACD
:107B60003BB1EFF3118387F31288216AD1B983F314
:107B700011889DF80430062BE5D0072BE3D801A22D
:107B800052F823F0D97B0200CD7B0200F97B020082
:107B9000DF7B02001D7C0200137C0200477B020099
:107BA000A77C0200606A0A682262814208BF6262A2
:107BB00083F311880B7ED1F81E205D06204602D18A
:107BC000FFF746FBCBE705F0F7FDC8E700220121F0
:107BD000204606F02AF8B6E700221146F8E794F8A6
:107BE0006C3043F0040301A984F86C30204605F0A2
:107BF0007CFB00220321EBE794F86C3023F00403B4
:107C000001A984F86C30204605F06FFB00220221A8
:107C1000DEE701A9204605F068FB94E794F86C3094
:107C2000A66923F0040384F86C30D6F80880336921
:107C3000BFF35B8FD3F8A030BFF35B8F9A072FD5CC
:107C4000D8F83C3030469847D8F8243000213046E8
:107C50009847D8F84030054630469847ADB9294690
:107C6000204605F0C7FC054678B9A06906F04AFE33
:107C7000831E5842584194F86C3084F8305023F0F9
:107C8000680343EA401384F86C3000220421204644
:107C900005F0CBFF002D3FF456AF2A46072197E7AA
:107CA0004FF0FF35F1E7029A062191E7D00300205B
:107CB00030B589B000220023CDE9062300246FF0FF
:107CC0000703CDE90334CDE901441A4B1A49009466
:107CD0004FF48062194803F07DFB1949174807F0FB
:107CE0008DFF184B18498B4207D3184B18490020B9
:107CF0008B4210D3002009B030BD03F11402BFF352
:107D00005B8F52E8000F42E80045002DF9D1BFF328
:107D10005B8F1833E7E703F11402BFF35B8F52E880
:107D2000004F42E80005002DF9D1BFF35B8F1833F7
:107D3000DEE700BF417B020000110020F8040020B4
:107D4000590B0300E0040020F8040020F804002090
:107D5000F804002038B5024609490546806906F056
:107D600036FE044648B985F83800284605F014FB6D
:107D7000044610B1A86906F059FE204638BD00BF80
:107D8000017B020070B5084C084D0646AC4202D398
:107D90000024204670BD636830461968FEF7B0F9CC
:107DA0000028F6D01834F1E7E0040020F8040020A1
:107DB00070B50646EFF31181202282F31288194C28
:107DC000236881F311885B6893F86C30DB0705D476
:107DD000BDE870402122002303F03CBAEFF3118389
:107DE00082F31288256855B983F311882368C3B1DB
:107DF00030460022BDE87040002303F0F7B9616807
:107E00002A6822608D4208BF626083F31188686827
:107E100005F10801C36998470348294607F072FD38
:107E2000E4E770BD28090020A003002030B585B02C
:107E3000CDE90012054600221248002303A902F0F2
:107E400065FD0246C0B9DDE90001039BC3E90201FB
:107E50005D60EFF31180202383F31288039B1A6087
:107E6000094A516851B9C2E9003380F311880748C3
:107E70000022002303F0BAF905B030BD0B60536057
:107E8000F3E700BFA0030020280900200000002025
:107E900038B504690C49636C0025C3E90155DD6000
:107EA00004F1500007F099FE04F18000074907F043
:107EB0008CFE074904F1280007F087FE204605F0F4
:107EC000D7FE284638BD00BFA1DE0200E1DF020078
:107ED00021E1020073B504698DF807102025EFF346
:107EE000118685F312880122606C0DF1070104F000
:107EF00087FE86F31188012810D007F079FEB8B10B
:107F00000F4BBFF35B8F012253E8001F002903D101
:107F100043E800200028F7D1BFF35B8F237F2BB10C
:107F20002122002304F1500003F060F902B070BD7B
:107F3000A37E002BE4D02120002103F0CDFCCEE76E
:107F400030090020F8B586681446F36B05460F46E5
:107F500098472146064800220023FFF7B1F804465F
:107F600000B107762846336C98472046F8BD00BF1D
:107F70004004002010F0080F0B4B42B20CD100F06F
:107F80000F00002A4FF0140202FB0033B4BFD3F8F5
:107F90000806D3F808077047002AB4BFD3F8A8062C
:107FA000D3F8A807704700BF0070024070B50146C3
:107FB000EFF31184202383F3128800F0080506F004
:107FC0006EFD01234E0603FA00F31ED0EDB9184EE4
:107FD000326822FA00F0C00717D522EA03023260A5
:107FE0004AB2AA4221F08000B4BF0022012200F26E
:107FF000DA30120102EB40020E48C0F80028D0F837
:10800000042842F00202C0F804280B48026822EA61
:108010000302026035B909480268090654BF9A4351
:108020001A430260034AC2F86C3484F3118870BDAD
:10803000880D0020007002408C0D0020900D002063
:10804000EFF31180202383F31288094BD3F8001C2F
:10805000032251B949F27531C3F8001CC3F8142D3D
:10806000C3F8001C80F311887047C3F8142DF9E79A
:1080700000E00640EFF31180202383F31288094BC0
:10808000D3F8001C51B949F27532C3F8002CC3F87B
:10809000141DC3F8002C80F3118870470022C3F828
:1080A000142DF8E700E0064070B5044606F0F7FC32
:1080B000EFF31186202383F31288631E0122062B1F
:1080C00002FA00F210D80E4D0E4B29681B680B43C4
:1080D00023FA00F010F0010006D10B4B04F5947464
:1080E000114343F82400296008490B6813430B60CF
:1080F000074B8022C3F8042186F3118870BD00BFAE
:10810000880D0020900D0020007002408C0D002092
:1081100000E100E0F8B510F0880704461CD100F03B
:108120000F02920002F1804202F51C32D2F8443470
:1081300093B1EFF31186202383F3128806F0AFFC8E
:10814000074DC2F8A074012303FA00F12B6823EA5B
:1081500001032B6086F31188024BC3F81845F8BD64
:10816000900D00200070024010B591F91800154BD9
:108170000A7E0028B4BFD3F81045D3F8144502F0A6
:108180000F020123934023420DD10E4A0028B5BFB0
:10819000D2F81005D2F8140503430343B4BFC2F864
:1081A0001035C2F814350B7E1A0709D4054AC2F8F7
:1081B0000C3543F48073C2F80C35087EFFF7AAFF34
:1081C000002010BD007002400B7E064A13F07F0FA6
:1081D0000BBF012343F480735365C2F818350020A8
:1081E000704700BF0070024070B506460D4606F0AD
:1081F000EFF8044606F0F8F828BB204606F016F91A
:1082000008B3802D16D1437E9A0744BF0E4A1570DD
:108210005B070FD50D4B1B7813B90D4B01221A6567
:10822000204606F0FFF8002201463046BDE87040C7
:1082300006F015B92846FFF737FF20460121BDE8B3
:10824000704006F0D3B870BDD3100020D8100020C5
:108250000070024038B50C4606F0BAF8054606F044
:10826000C3F8B8B9284606F0E1F898B14CB9437E96
:10827000DA070FD49B0704D5074B1C70074B01226C
:10828000DA642046FFF710FF28460121BDE8384098
:1082900006F0ACB838BD00BFD3100020007002401B
:1082A00010B50D4B44681B782BB10C4B002218689D
:1082B000114606F0C8F8002201212720FEF73CFCF9
:1082C000201D02F0DDF804F1080002F017F907F0B4
:1082D00064FA002010BD00BFD5100020940D0020CE
:1082E000012810B5014619D0022809D0A8B90F4BB2
:1082F0000246186806F0A7F80D4B01221A700CE030
:108300000C4B0D4C00221A700C4BC4F80033272084
:10831000FEF7E2FB0123C4F8043510BD034B002235
:10832000186806F090F8024B0022E7E7940D002051
:10833000D5100020D410002000700240FDFFDF01A6
:108340000146014807F01DBE0804002008B5054B92
:108350001970054B1B7813B10420FFF7F1FF0020C3
:1083600008BD00BFD6100020D710002010B504694A
:10837000087E0D4A06F093FB012303FA00F0136810
:108380000343136003F002FB4020FFF7D9FF4FF0D7
:10839000FF324FF0FF3304F18401044802F094FFF0
:1083A00003F004FB002010BD840D00201404002005
:1083B0002DE9F041454B066988B00546186006F185
:1083C000840007F0F8FA00220023CDE906230024F8
:1083D0006FF00703CDE90334CDE901443C4B3D493F
:1083E00000954FF400723C4802F0F4FF3B4F3C49CB
:1083F000394807F003FC3A693A4B134043F48203CF
:1084000043F040033B61B8463C763946284605F0C8
:10841000EFFF002856D10134092C1BD008EB441281
:10842000082C937C43F0400307F12007937408D194
:10843000D8F810312C4A1A402C4B1343C8F810318D
:10844000E2E711692A4B0B4043F4C02343F0400399
:108450001361D9E7274C284B2269134043F40413D6
:1084600043F0400323610746A04667F07F0323766D
:108470002146284605F0BCFF20BB0137092F1BD041
:1084800008EB4712082F937C43F0200304F12004EB
:10849000937408D1D8F81031134A1A40134B134380
:1084A000C8F81031E1E71169114B0B4043F4C023C8
:1084B00043F040031361D8E796F8803043F0760329
:1084C00086F8803008B0BDE8F08100BF940D002030
:1084D000A58502004015002090050020B80E002060
:1084E000710B03000000BEFF0000F7FFFF01080052
:1084F0000000F9FF980D00200000DEFF10B50C46CB
:108500002046114605F094FF207E06F0C8FA014689
:10851000034806F0D3FA0120FFF712FF002010BD38
:10852000DC0F002008B5064A0B7EC2F80C3543F478
:108530008073C2F80C35087EFFF7ECFD002008BD03
:108540000070024010B50C7E4FF0FF324FF0FF3349
:10855000114802F05BFC2046FFF728FD04F00F03F2
:1085600001229A400D4B14F0800F15BFD3F810155F
:10857000D3F8141521EA020221EA020214BFC3F85B
:108580001025C3F81425044802F00EFC044B802289
:10859000C3F80421002010BDF80300200070024041
:1085A00000E100E02DE9F04FC04D85B004464FF0EA
:1085B000FF384FF0FF390022CDE900894FF0FF313D
:1085C000BB4807F0E5FCBA484FF0FF3107F0DCFC90
:1085D000074638072AD5B74842464B4602F016FCF4
:1085E000EFF31182202383F31288B34B1B787BB106
:1085F000D5F8003413F400730AD10121C5F82C1505
:10860000D5F82C15D5F80014890548BFC5F82C35C8
:1086100082F31188A74802F0C7FB0121204605F02C
:10862000B7FE00220321204605F00DFFFE0608D507
:108630000021204605F0ACFE00220221204605F074
:1086400002FFB80608D50021204605F0A1FE002251
:108650000221204605F0F7FEB9075BD4FA0710D5D2
:10866000BFF35B8F954B002253E8008F43E8002156
:108670000029F9D1BFF35B8F0126B8F1000F40F05C
:108680009B8079072ED5D5F88004C0B28DF80800FC
:10869000D5F88414C9B28DF80910D5F88824D5F816
:1086A0008C3442EA0322ADF80A20D5F89034D5F88C
:1086B000946443EA0623ADF80C30D5F89834D5F825
:1086C0009C6443EA06239BB27D4EADF80E30002831
:1086D00040F08A80052940F0878001213170002B0D
:1086E00000F08E807B067FF562AF206984304FF00A
:1086F000FF324FF0FF3302F0F5F9724F3E68002E63
:1087000040F09780704802F0ABFD2069843002F0A1
:1087100089FA4CE76D4BBFF35B8F002253E8008F63
:1087200043E800210029F9D1BFF35B8F4FF0010925
:10873000B8F1000F92D098FAA8F3B3FA83F30F2B95
:10874000CABFA3F1100643F08006F6B209FA03F39C
:1087500028EA030833063146204618D505F038FECE
:10876000834605F05FFE824660B10021584605F061
:108770003DFE00225146204605F071FE802E08BFC6
:10878000C5F8509031462046FFF72EFDD0E705F0A2
:108790001FFE834605F046FE824640B10021584642
:1087A00005F024FE00225146204605F058FE3146D1
:1087B0002046FFF74FFDBBE798FAA8F3B3FA83F31F
:1087C0000F2BCABFA3F1100143F08001C9B206FA12
:1087D00003F30A0628EA0308204602D5FFF704FD42
:1087E0004BE7FFF737FD48E7394900233370D5F8E9
:1087F0007024097891420AD1364B00221A7013E096
:1088000002F07F02ADF80A20ADF80C30F4E73149F0
:1088100001220A7032704FF4A062ADF80820D5F83A
:108820007024ADF80A20039302A9204605F03EFE0D
:1088300058E796FAA6F6B6FA86F60F2EC6BFA6F148
:108840001001C9B246F08001204605F0C1FD804606
:1088500090F818904FF0FF324FF0FF33154802F0B8
:10886000D5FA4846FFF7A2FB124802F09DFA1A4BD0
:108870008022C3F804214146204605F008FE00216D
:10888000404605F0B3FDBFF35B8F0123B3400F4AB1
:10889000DB4352E8000F184042E800010029F8D1FC
:1088A000BFF35B8F3A6813403B6027E700700240DC
:1088B00008040020F8030020D4100020DC0F002062
:1088C000D8100020840D002014040020D80F0020B0
:1088D000D6100020D710002000E100E04FF08053B8
:1088E000D3F83031082B02BF024B0022C3F81C2CF6
:1088F000704700BF007002402DE9F8430646476804
:108900004FF0FF324FF0FF33364802F07FFA364B1C
:108910008022C3F884212720FEF700F9B8B1DFF8E0
:10892000CC80334BD8F800401B686FF30F041C4316
:108930004FF0010994BB2F4D40F2FF13C8F80030EF
:108940002720C5F80445FEF7D5F8C5F800432A4AA4
:1089500013788BB1274B0021C3F808110121C3F80C
:108960000026C3F804165960D3F808110029FBD07B
:108970000021C3F8081111701E4B0024C3F80045F4
:10898000FFF7ACFF174802F00FFA2146304605F01A
:1089900075FEB8B16FF00400BDE8F88394FAA4F551
:1089A000B5FA85F50F2DC6BFA5F11000C0B245F090
:1089B0008000030701D4FFF7F9FA09FA05F524EA64
:1089C0000504B7E78021304605F058FE014600282F
:1089D000E0D138688268546A084AA04700EAE0702B
:1089E000DAE700BFF803002000E100E0900D00206E
:1089F0008C0D002000700240D1100020340D0020AA
:108A00002DE9F04FAA4BDFF8AC82D3F85421AA4FDE
:108A100085B00AB30022C3F85421D3F8042391028D
:108A20001AD5D3F8C034002B14BF4FF001224FF4F5
:108A30008072A24B9B683BB998F8000006F02FF8B3
:108A40000123834022EA03023B6813439C4A3B60B4
:108A5000136823F001231360954BD3F8604134B1C0
:108A60000022C3F86021D3F86C44C3F86C44D3F8F7
:108A700028214AB10022C3F82821924B187806F029
:108A80000EF8012383401C4398F8005098F90060C9
:108A90002A0700F10681002EB4BF8B4B8B4B05F0EB
:108AA0000F029200D3181A684AB300221A602846AF
:108AB000FFF760FA864B1A7800F0010050401870FA
:108AC000FFF70CFF834B28461A6805F0E8FFC24009
:108AD000D307814600F11981002E80F20781882D8D
:108AE00000F00481764A0123116803FA09F30B436D
:108AF0001360812388F80030704802F055F98CB17A
:108B00003B686F4ADFF8D0A124F001210B433B60A2
:108B1000136823EA01031360A4B24FF00109002C8B
:108B200040F0F980624BD3F800214AB1C3F800410C
:108B30006A4B1C70684B22461868042105F083FCC0
:108B40005B4BD3F858212AB30022C3F85821D3F83D
:108B50000044C3F80044E00505D5604B012208201D
:108B60001A70FFF7EDFBA10505D55C4B0022102024
:108B70001A70FFF7E5FB62050CD5584B1A784AB11D
:108B800000221A704A4B0122C3F8082520209A655A
:108B9000FFF7D6FB464BDFF83CA1D3F85C31F3B1CD
:108BA000464B9B681BB998F800305B0617D0404BCA
:108BB0000022C3F85C21DAF80030414A23F00113A7
:108BC000CAF800303B6823F4803343F001033B6074
:108BD0001368042023F001131360FFF7B1FBDAF8E8
:108BE00000603B681E4000F02981314BD3F82C9582
:108BF000B9F1000F40F0228130480022002302F03A
:108C000005F9002840F01A8116F0012318BF1E460E
:108C100096FAA6F6B6FA86F60F2EC8BFA6F110058C
:108C20002D4BCCBFEDB246F080051868294605F003
:108C3000CFFB019005F0FAFB4FFA85FB05F0080326
:108C4000BBF1000F0246029380F29980019A048AD8
:108C5000528BC368C2F30A02944200F28D800193E2
:108C600005F0E8FB019B80F001095FFA89F92246D3
:108C7000144603F06042B2F1005F05D0194618486F
:108C8000224607F097F9164BB9F1000F00F0A880C3
:108C9000DAF800200121B14022EA0102CAF80020DE
:108CA0009EE0104B104A33EA260328BF1346FAE62B
:108CB00000700240D2100020900D0020F803002028
:108CC000880D0020D310002008710240307102404E
:108CD000D11000208C0D0020940D0020D410002015
:108CE000440D0020507102402C7102405F484946FB
:108CF00005F0E4FE0220FFF723FB002EFFF6F2AEA4
:108D0000013D062D7FF6EEAEF3E6002DF5D1584B72
:108D10000122DA64EDE694FAA4F5B5FA85F509FACC
:108D200005F345F080052946DAF8000024EA03043B
:108D300005F04EFB05F07AFB06462846FFF71AF9C8
:108D4000014606F10C0004F04DF8338A002B7FF445
:108D5000E6AE304605F06EFB18B1304605F06EFB0E
:108D6000DDE6284605F09BFE0146404805F0A6FEDC
:108D70000220FFF7E5FAD2E64FF0000978E705F0A8
:108D800008013B4B00295CD0D3F8C03413F4803F7A
:108D900008BF9946118AD068548A02924318641A0F
:108DA00051690393401A241A4C4528BF4C4621466A
:108DB00002F10C0003F0EEFF019B598BC1F30A0195
:108DC0004945DDE902237FF463AF5169D068B2F809
:108DD00012C0128A401AACEB000191423FF458AF26
:108DE0004FF080520120D2F83021082A02BF204AD9
:108DF0008221C2F81C1C3A6888F8005000FA06F676
:108E000022EA060205F008013A60194AF1B98B45D9
:108E100005F00F054FF0140101FB0521A9BF0A352C
:108E200002EB8502C1F80037C1F80447AFBF42F832
:108E30002500C1F80036C1F80446506005B0BDE811
:108E4000F08F05F5947153F82190A3E7BBF1000F63
:108E5000B5BFC2F8A036C2F8A037C2F8A446C2F81F
:108E6000A447B4BF50629064E8E700BFD80F002069
:108E700000700240EFF31183202282F31288154A1A
:108E800012780AB3144AD2F82C15E9B10021C2F8BD
:108E90002C154FF08052D2F83021082A03D083F3EA
:108EA0001188002070470D4AD2F8000CC02140B94B
:108EB00049F27530C2F8000CC2F8141CC2F8000C5C
:108EC000EDE7C2F8141CEAE783F311886FF00A009B
:108ED000704700BFD41000200070024000E0064040
:108EE00037B500224568009211464023044605F03C
:108EF00076FB024618B16FF0040003B030BD00905D
:108F000080214023204605F06AFB01460028F2D16B
:108F10004D4A01235060D060936028688368DB6904
:108F200098470028E9DBEFF31184202383F31288AC
:108F3000464B4FF40062C3F8002405F0A2FD08B1CF
:108F4000FFF77EF84FF08053D3F83031082B14D15F
:108F5000EFF31180202383F312883D4BD3F8001CDC
:108F6000C022002969D149F27531C3F8001CC3F849
:108F7000142CC3F8001C80F31188344B0122C3F871
:108F80000025D3F800241205FBD54FF40062C3F886
:108F900000244FF08053D3F83031082B13D1EFF376
:108FA0001180202383F31288294BD3F8001C002959
:108FB00046D149F27532C3F8002CC3F8141CC3F82B
:108FC000002C80F3118805F05CFD30B1FFF752F8FA
:108FD00005F057FD08B1FFF733F84FF08053D3F891
:108FE0003031082B194B0AD140F2E372C3F8002844
:108FF0004022C3F80428BFF36F8FBFF34F8F802246
:10900000C3F81C250122C3F83025124B40F2FF1291
:109010001A60114B00211960104B1960104B197028
:10902000FFF75CFC0F4B197005F02BFD08B1FFF743
:1090300021F884F3118800205FE7C3F8142C9AE725
:109040000022C3F8142CBCE7340D0020007002404D
:1090500000E00640900D00208C0D0020880D0020BF
:10906000D1100020D310002038B501F051FA044C83
:10907000044DAC4200D338BD54F8043B9847F8E7A0
:10908000081203001012030010B5074B1C7854B9E6
:109090002046012122461970FDF74EFD2046BDE80D
:1090A0001040FDF719BD10BDD91000201FB50022DA
:1090B0000123CDE902230949CDF800D080236A4677
:1090C000CDF804D005F06AFD28B94FF480420023A2
:1090D000684601F09BFE04B010BD00BF7BEB0200B0
:1090E00070B50A4605460C4650F8040C0549402365
:1090F00005F054FD014620B128462346BDE87040E6
:10910000184770BD35EB0200024B0122C3F88021E5
:10911000704700BF00E100E010B503690446186025
:10912000FFF7B2FF20690549043003F068FC00280E
:10913000A1BF236901229A62002010BDA40503008B
:1091400010B5EFF31184202383F31288054A1368C6
:1091500023F00201DB07116001D406F03AF884F332
:10916000118810BD0C10002010B50446054800F011
:1091700023FF20B92046BDE81040FFF7CDBF6FF0B8
:10918000040010BD89910200034B9B6A5B0702D16A
:10919000024805F055BD7047E00F00203001030084
:1091A00010B5EFF31184202383F312880F4A13685C
:1091B00043F002011160DA0705D484F31188BDE899
:1091C000104000F00DBF4FF08043D3F80C24D3F8CB
:1091D0000C34DB07F1D5064805F0D2FC84F3118886
:1091E0000448BDE8104005F02BBD00BF0C10002066
:1091F000081000203001030010B50446054800F0B7
:109200002BFF20B92046BDE81040FFF785BF6FF067
:10921000040010BD19920200012802D1014805F096
:109220000FBD70474C0103002DE9F0413549BFF3F4
:109230005B8F0746012251E8003F41E800200028EB
:10924000F9D1BFF35B8F33B92F4930484B60CB6006
:109250008A6003F0E7FB7B1E012B46D8012F07D164
:109260004FF08043D3F81C3403F00303012B3CD0B0
:1092700006F0BEFC054650B1EFF31186202383F3C0
:10928000128801254FF080444FF001081EE0204B6A
:109290001B78002BF0D04FF080430222C3F8082344
:1092A0000646EFE71DB3304603F01EFDD4F818352F
:1092B00063B9D4F804214AB1C4F80431D4F80431B4
:1092C000C4F81885FFF720FFC4F80880D4F81824E4
:1092D000D4F81834D20303F00303E3D5012B01D0F3
:1092E000012FDFD145B186F31188BDE8F08121203F
:1092F000002102F0F1FAD9E74FF080430222C3F8CF
:109300000423F2E720100020101000202810002075
:10931000FD10002008B5074806F069FA38B1064884
:10932000FDF764FE0448FCF7C3FF002008BD6FF0A2
:109330001200FBE7A00103003D9302000A2838B5A4
:10934000074D044604D1AB680D215B682846984759
:10935000AB6803485B68E1B29847204638BD00BF60
:10936000A00103002DE9F043144640F20636476899
:1093700087B0E00604EA060654BFC4F3401C4FF071
:10938000030CB6F5837F3A7C8DF803C048D00DD826
:10939000062E16D005D8A6B1022E43D06FF01500C8
:1093A0003BE0B6F5807FF9D101260AE040F20220C9
:1093B000864239D0B6F5407F38D0B6F5007FEDD182
:1093C000022601F01F0545EA4215220330D57A68CE
:1093D00001238B40C2F80835B868A0BB05F01F0315
:1093E0006D092DD0012D77D13E4A02EB8302C4F3E3
:1093F0000043D2F8001783F00103C4F3404444EA69
:10940000430421F4E16144EA8C0421F0070144EAB9
:1094100006230B43C2F80037002007B0BDE8F083F5
:109420000726CEE70426CCE70526CAE70326C8E7C9
:10943000630341BF01237A688B40C2F80C35CBE748
:109440004FF0A042D1E70DF10202294606F00FF9D4
:1094500014F4403F80460CD1B868294606F03CF928
:10946000B8F1000FD8D19DF80210B86800F00EFFD7
:10947000D2E74FF0000901ABCDE90199CDE90439FC
:10948000CDF80C90B86803AA294605F0C8FF4845F6
:10949000C2DB14F4003314D0C4F300449DF803304D
:1094A0008DF80E3084F001048DF80C608DF80D40BD
:1094B000B8684B4603AA294606F062F80028CFDABE
:1094C000AAE7CDE904330DF103030393B86803AAB7
:1094D000294605F0A4FFF1E703F5E07350F82330C7
:1094E000FFDE00BF00030050430970B502D0012B1E
:1094F00017D070BD0D4E336959680029F9D000F0BE
:109500001F0301250C689D400029F2D08A682A407B
:1095100002D04B68304698472CB1236821461C4640
:10952000F2E7034EE7E72346F8E700BF84010300B4
:109530006801030038B54568A86890B106F0C6F820
:10954000014670B9A86806F0A5F8044658B9024665
:109550000649A86806F088F8224605210620FDF78E
:10956000EBFA002038BD6FF00400FBE7E99402003D
:1095700070B54468A06886B0002872D0267C01F0DF
:109580001F05B2F5001F45EA461504D1294606F02D
:10959000F7F8002056E06068667CC0F8246501A8F2
:1095A0000026B2F5800F0196466037D1B3F1007FF7
:1095B00014BF052304238DF804300023CDE90403F0
:1095C0000393E36823FA01F111F001010DF10306A1
:1095D0003AD1B2F1A07F37D105F01F036A0903F534
:1095E000E07326D0012A3FD1214A52F82330DB070D
:1095F0002AD4A0683246294606F039F816301BD026
:109600000296A06803AA294605F009FF002819DB85
:10961000A0680122294606F061F8BAE7B3F1C06FED
:1096200005D0B3F1007F14BF01230223C3E7032356
:10963000C1E74FF0A042D8E7A068314600F02CFE09
:109640000028DDDA06B070BDA0683246294606F073
:109650000EF80028D5D19DF80310A06800F016FE82
:10966000CFE76FF08500EDE751F82330FFDE00BF54
:1096700000030050036803F01F025B09026004D07E
:10968000012B034818BF002070474FF0A0407047DF
:10969000000300502DE9F04FDFF854B185B01546B6
:1096A000074600EB810140F2FF1AB94203D10020C6
:1096B00005B0BDE8F08F3B68DA0A12F0080940F007
:1096C000918002F00F02C3F308041B0E1BF8026026
:1096D000544508BF4FF0FF34192B00F28680DFE8B5
:1096E00003F00D1E2534282F3484848484373D8470
:1096F000848484848484848440787B7EC5F80C458B
:10970000621C64D003A80394FFF7B4FF039B4FF0DF
:10971000010808FA03F3C0F80835424636E0C5F8F8
:109720001445631C53D04FF00008F6E7C5F8084510
:10973000E6E7C5F808454FF00008601C1CD146E07C
:10974000C5F80C454FF00108F7E7C5F81045E8E704
:10975000C5F80845002EE4D10626E2E7C5F80C4519
:10976000F8E7C5F860457B88621C03F001032ED042
:10977000002BC7D14FF0010803A80394FFF77AFF2D
:10978000039B012202FA03F3C0F80C353B680193F6
:1097900003F40040002803A80CBF91464FF00108D5
:1097A0000394FFF767FF039A019B00EB8200C3F36A
:1097B00041243302D0F8002743EA84030D4C43EAE6
:1097C00009031440234343EA4803C0F80037043731
:1097D0006BE7C5F86445C6E7C5F86845C3E7C5F853
:1097E0006C45C0E76FF0150062E76FF085005FE73A
:1097F000F60C0300F0F8FCFF2DE9F8430446466838
:10980000884606F0F5F968B14FF02009EFF31187AB
:109810003D4689F31288606805F050FB20BB87F352
:109820001188F3E71D4B1B78002BEDD04FF020097A
:109830006425606805F042FB60B9012005F069FC11
:10984000013DF6D12120002102F046F8F0E787F330
:109850001188F7E7EFF311873D4689F312886068B6
:1098600005F02CFB0028F2D0B36983F80080636810
:10987000B2691B680021C3F844250122C3F84825BA
:10988000C3F82011D3F82001C3F85811D3F85811A8
:109890009A6085F31188BDE8F88300BFFD100020B1
:1098A00070B5012383400E4ABFF35B8FDC4352E85F
:1098B000001F01EA040542E80056002EF7D1BFF36D
:1098C0005B8F4FF4803282400648C0F80823BFF314
:1098D0005F8FBFF36F8F0B4214BF0120002070BD5C
:1098E0006C1000200010014011B3BFF35B8F012307
:1098F000104A834052E800CF4CEA030C42E800C112
:109900000029F7D1BFF35B8F0B4A4FF480338340BC
:10991000C2F80433094BBFF35B8F1B68BFF35B8F47
:10992000C340DB0742BF064B4FF40032C3F80021AF
:10993000704700BF6C10002000100140681000202C
:1099400000E100E00D4B1868010A0006BFF35F8FCD
:109950000B4BD3F80435181841F10001B3F5801F03
:109960000AD2084BD3E90023904271EB030303D2E0
:1099700010F1807041F10001704700BF70100020AD
:1099800000100140500600202DE9F04F85B016462A
:109990001F469DF840A00446FFF782FF0290FFF7A4
:1099A000D1FFB04271EB07035FD23E4B301A67EB39
:1099B0000101984271F1000109D36FF015052046AD
:1099C0000299FFF791FF284605B0BDE8F08F364BAE
:1099D00003EB0413D3E902239F4208BF964255D0FC
:1099E000324D4FF4803909FA04F904F15001C5F8F9
:1099F00048932046890005F06EFB89B204F5A872F1
:109A000026F07F4B01F180410192294A01F588310E
:109A1000DC460323DDF804E02CF07F4045F82E00FF
:109A2000C5F84493D5F804856FF00200A0EB080058
:109A3000604420F07F40904228D9086870B1D5F882
:109A40000485A8EB0B0020F07F40B0F5000F1DD976
:109A50002046039305F03FFB039B154ABAF1000F24
:109A6000ABD103EB080C0133D4E7BAF1000FA4D15A
:109A70000123104ABFF35B8FA34052E8000F184345
:109A800042E800010029F8D1BFF35B8F06490E9828
:109A9000230101EB0412C8500F9B5360C2E9026717
:109AA00000258CE7010080004006002000100140E6
:109AB000FDFF7F006810002030B5124B124CD3E937
:109AC0000023D4E90014521843EB040312180F4882
:109AD000D0E9001043F10003551A63EB0004B5F51B
:109AE000000F74F1000485B003D3094A8A1840F1CD
:109AF0000003084900910020CDE90100FFF744FF71
:109B000005B030BD300600202806002038060020B1
:109B1000FFFF7F00199B020022F07F42F8B5A2F5FB
:109B20000013B3F5400F09D2184B1B681C0A1B0623
:109B30009818174B44F10001C3E90001EFF31186B7
:109B4000202383F31288134DD5E90074FFF7FAFE42
:109B5000C31B61EB0404C5E900010F49D1E90020F2
:109B6000D21844EB0000C1E900200C4A002000217B
:109B7000C2E90001002C08BF1846314618BF4FF05B
:109B8000FF30BDE8F84002F0C9B800BF70100020F7
:109B9000500600203806002030060020280600204D
:109BA00038B5224C224BC4F80833C4F84833214B53
:109BB00000224FF0FF304FF0FF31C4F80825C3E911
:109BC00002014FF48033C4F804330223C4F8043391
:109BD000194B4FF40031C3F8801111200121FCF71B
:109BE000ABFF1120FCF778FFD4F8043523B1012333
:109BF000A3602E2005F0DFFD0125104B25601D60C0
:109C0000FFF7A0FE0E4BC3E900010E4BC3E90001B4
:109C10000D4B00210020C3E900012846FFF74CFF4F
:109C20000220FFF701FB002038BD00BF00100140FB
:109C300003000F004006002000E100E06C1000204F
:109C40003006002038060020280600202DE9F341C8
:109C50002E4CD4F8043399070BD5D4F8043143B112
:109C60002B4A0023C4F80431D4F8043113680133BB
:109C70001360D4F80433DA0341D5BFF35B8F254B6F
:109C800053E8002F22F0010143E800100028F7D12B
:109C9000BFF35B8FD3072ED50025C4F84051D4F80D
:109CA0004031FFF74FFEEFF31182202383F3128838
:109CB000194BD3E90267B042B94123D34FF0FF30CB
:109CC0004FF0FF31C3E90201D3E9008C1D604FF46E
:109CD0008033C4F84833C4F84051D4F8403182F39B
:109CE0001188B8F1000F0AD0CDF800C032463B46CB
:109CF0002846C04703E0D4F84031002BCCD102B055
:109D0000BDE8F08182F31188F9E700BF001001403F
:109D100070100020681000204006002038B5084B65
:109D2000D3E90045FFF70EFE064A041B61EB05016F
:109D3000C2E9004100290CBF20464FF0FF3038BD7A
:109D40003806002028060020BFF34F8F0549064B38
:109D5000CA6802F4E0621343CB60BFF34F8F00BFC9
:109D6000FDE700BF00ED00E00400FA05024AD2F86A
:109D70000034002BFBD0704700E0014010B54FF0DD
:109D80008053D3F83021082A4ED14FF08042002171
:109D9000C2F80C11C2F81011C2F8381502F5404291
:109DA000D3F80414C2F82015D3F80814C2F8241507
:109DB000D3F80C14C2F82815D3F81014C2F82C15D7
:109DC000D3F81414C2F83015D3F81814C2F83415A7
:109DD000D3F81C14C2F84015D3F82014C2F8441567
:109DE000D3F82414C2F84815D3F82814C2F84C1537
:109DF000D3F82C14C2F85015D3F83014C2F8541507
:109E0000D3F83414C2F86015D3F83814C2F86415C6
:109E1000D3F83C14C2F86815D3F84014C2F86C1596
:109E2000D3F84434C2F8703505F063F918B13C4BEF
:109E30003C4AC3F88C2605F05CF918B13A4BFB227A
:109E4000C3F8182505F055F958B14FF080424FF08E
:109E50008051D2F8E43ED1F8581261F30303C2F8FE
:109E6000E43E05F046F920B1304B4FF40072C3F8E0
:109E700040264FF08053D3F83031082B17D14FF0E4
:109E80008043D3F80024D20744BF6FF00102C3F827
:109E900000244FF08053D3F83431042B81BF4FF0AE
:109EA0001023D3F808224FF08043C3F858254FF011
:109EB0001021D1F80C32DB0714D51D480123C0F85E
:109EC0000435FFF753FFD1F80C3223F00103C1F83A
:109ED0000C32FFF74BFF0023C0F80435FFF746FFB5
:109EE000FFF732FFD1F80032002B03DBD1F8043248
:109EF000002B14DA0E4901234FF01020C1F804356D
:109F00001224FFF733FFC0F80042FFF72FFFC0F81D
:109F10000442FFF72BFF0023C1F80435DEE710BD34
:109F2000005000404881030000F0004000900240D3
:109F300000E00140014B1860704700BF7410002022
:109F400010B5054B1868144605F0E5F80028A4BFC5
:109F50002070002010BD00BF74100020024A0123B1
:109F60008340C2F80435704700F0014038B54FF027
:109F700080440123C4F8083363600023C4F800312F
:109F8000D4F8003142F21075D4F80C24D4F80C3413
:109F9000D20307D5DB0705D5012005F0BAF8013D4E
:109FA000F2D138BD05F006F90028FAD0014B0022A5
:109FB0005A71F6E77810002010B508490C794CB9B1
:109FC000012308600B7105F0F5F808B9002010BDF9
:109FD0004C71FBE76FF07700F9E700BF78100020C5
:109FE0004FF080430022C3F80021D3F80021094933
:109FF00001221A60096811B1C3F804237047D3F82D
:10A000000021002AFBD00022C3F80021D3F8003140
:10A01000704700BF7810002010B54FF08043D3F890
:10A020000423D20715D5D3F8002192B10022C3F83A
:10A0300000210121D3F80021C3F8081305F0BAF874
:10A04000044B10B15A7922B95971BDE810401B6810
:10A05000184710BD78100020074A137943B9012131
:10A06000106011714FF080421846C2F818357047E1
:10A070006FF07700704700BF8010002010B54FF0E0
:10A0800080431D4CD3F81814D3F8182411F4803FE2
:10A090001AD002F00302012A01D092B900224FF037
:10A0A0008043C3F818250022C3F80421D3F8042103
:10A0B00001229A6022688AB9D3F80421002AFBD0D1
:10A0C00014E005F088F8E9E7D3F81424D107E5D5C2
:10A0D000D3F81C249207F4D422681AB10222C3F8E0
:10A0E000042310BDD3F80421002AFBD00022C3F8BA
:10A0F0000421D3F80431F4E780100020F8B54FF0C4
:10A100008043194FD3F80443012504F01A040026B4
:10A1100004B9F8BDB4FA84F0C0F11F00830003F560
:10A1200080739BB203F1804305FA00F2196892B282
:10A1300024EA02040029EBD01E601B684FF0804324
:10A14000022AC3F808230BD1D3F81814D3F8181433
:10A15000890705D1C3F81855C3F804239D60D7E7D4
:10A160003B68C0B29847D3E780100020036803F033
:10A170001F025B09026004D0012B034818BF0020B6
:10A1800070474FF0A040704700030050034A430956
:10A1900000F01F00D35C1844C0B27047FE0C0300EF
:10A1A00030B585B01A4C01910022217804AB03EB45
:10A1B000D10301F0070113F80C3CCB4013F001036D
:10A1C0000AD1531C022B04F101044FF00102ECD11F
:10A1D0000023184605B030BD4FF0A041029101F5B3
:10A1E0004071039102A951F82210D1F8205540F88E
:10A1F0002250C1F820554FF08055D5F83051082D28
:10A2000008BFD1F8201550F822100029D9D0E0E776
:10A210000E0D0300F7B504460846FFF7B7FF04EB41
:10A2200040060D46337DDB072AD5204605F0D5F8DC
:10A230002946204605F041F850B1204605F053F874
:10A24000276807EB80000023C0F81035C0F81035F0
:10A250002946204605F070F80021B18201A8019539
:10A26000FFF784FF019B00EB8300074BD0F800272A
:10A27000134043F00203C0F80037084603B0F0BDB6
:10A280006FF01500FAE700BFF0F8FCFF014804F09A
:10A2900060BF00BF1C03002010B504480C4604F04A
:10A2A0003AFF0028A4BF2070002010BD1C0300202E
:10A2B0002DE9F04F074689B057F8049B0090D9F874
:10A2C0000413C9B2082241F00041484605F05DF888
:10A2D000051E2FDA0023032106A8CDE90633FFF778
:10A2E0005FFF644B02930DF118084FF0000B029AC8
:10A2F000614912F8013B0292DA0803F007038A5C15
:10A3000022FA03F3DA071CD40BF10103022B08F144
:10A3100004084FF0010BEAD14FF0004100224846FB
:10A3200005F033F8032106A8FFF73AFF0028D8D13B
:10A3300025F000450124002D40F0848009B0BDE8DF
:10A34000F08F4E4B5B440393D8F80060002EDBD0B7
:10A35000039B96FAA6F61C78B6FA86F646EA4414EB
:10A360002046FFF713FF009BF20803EB400006F0C6
:10A370000706818A18F80200012303FA06F620EA8C
:10A38000060008F80200C1F3820A05A8CDF804A06F
:10A390000594FFF7EBFE059A02F5E072CB0650F844
:10A3A0002260C6F3014633D5019A3846214604F0AF
:10A3B000A4FF05A80594FFF7D9FE059B03F5E073FC
:10A3C000F6B250F82330C3F301439E4207D1002177
:10A3D000204604F064FF3146204604F060FF05A8E3
:10A3E0000594FFF7C3FE059B012202FA03F3C0F8B0
:10A3F00020354FF08053D3F83031082B01BFD0F80F
:10A400002035D0F82035D0F82035D0F820359BE71E
:10A41000022E14BF02210321204604F040FFBAF1AE
:10A42000030F04D0022E08D1BAF1010FD7D1019A3F
:10A430002146384604F061FFD1E7032ECFD1BAF1AF
:10A44000020FF3E795FAA5F3B3FA83F304FA03F2E4
:10A45000009925EA020503F5A27201EB430359F8BE
:10A460002220B3F87C10C2F30142384604F045FFC5
:10A4700061E700BF0E0D0300380603000E0D030058
:10A4800010B5174C237843BB03789A0722D54FF0B9
:10A490008053D3F83021082A08D1D3F83431022B65
:10A4A00002BF4FF080430122C3F8382601234FF04A
:10A4B0008042C2F88035037803F00103C2F8783592
:10A4C0000020FCF72BFB08B9FCF706FB01232370E7
:10A4D000002010BDC3F34003E9E76FF07700F8E711
:10A4E000FC1000204FF080434FF46072C3F8082343
:10A4F000014B00221A6070478810002008B5FFF752
:10A50000F1FF03680BB1014A136008BD88100020F9
:10A5100010B54FF08043D3F80443620707D54FF4DA
:10A52000847005F02FF910B11E4B1B689847A306E5
:10A5300008D54FF48A7005F025F918B11A4B0020A0
:10A540001B689847600608D54FF48C7005F01AF91F
:10A5500018B1154B01201B689847210608D54FF408
:10A560008E7005F00FF918B1104B00201B6898474A
:10A57000E20508D54FF4907005F004F918B10B4BC3
:10A5800001201B689847A3050AD54FF4927005F087
:10A59000F9F828B1054BBDE810401B6802201847A8
:10A5A00010BD00BF901000208C10002088100020EB
:10A5B00010B5044602F0AEF9024802F0AEF92046AA
:10A5C00005F020F9BE0B03002DE9F04105460E46CB
:10A5D000EFF31187202383F31288DFF87080D8F817
:10A5E000084002F097F902F095F9042D96BF184B38
:10A5F000184A53F82520184898F81030294602F0D8
:10A600008CF946B1F369C3F3080323B102F082F970
:10A61000124802F082F902F07DF934B1204605F0CB
:10A62000F0FA024608B1037803B90D4A0D482146F5
:10A6300002F073F931462846FFF7BAFF87F3118815
:10A640002046BDE8F041FCF719BB00BF9410002084
:10A650003C060300CE0B0300E40B03000D0C0300CB
:10A66000DC0B03002E0C030038B50A4B53F82040D6
:10A67000013053F82050A54200D838BD606830B191
:10A68000037EDB0701D405F09AF80834F3E723686A
:10A690009847FAE75006030070B5264B264C274D25
:10A6A000012286B01A70AC421AD30320FFF7DCFFF8
:10A6B0000420FFF7D9FF224C224DAC42264613D38B
:10A6C00001F064F91E4CAC4225D301F06FF9FBF7A1
:10A6D00049FD1D4A938923F00103938106B070BDA3
:10A6E00054F8043B9847DEE7636A0593236A0493B2
:10A6F000E3690393A3690293636901932369009358
:10A70000303454E90A2354E90C0100F007FE54F8F0
:10A71000303C5E65D1E7D4E90A2352EA03012068A0
:10A7200003D105F070FA3034CDE70849183001F054
:10A7300015FAF8E7FD100020780303007C030300FE
:10A740007C0303007C030300F006002023FD0200CD
:10A7500070B5164D164C1749982386B003FB00556B
:10A7600001220023CDE904230F22CDE90232019317
:10A77000142303FB004406464FF4C07000FB06118F
:10A780000D4B00944FF4A072284600F0C7FD2B7CBF
:10A790000A4AE56023F004032B744FF4046306FBBC
:10A7A000033313442674636006B070BD580600205E
:10A7B00094100020C01F00206DF9020080170020B7
:10A7C0007FB50020FFF750FF2D4B83F308882D4CF9
:10A7D0002D4D636943F400736361E02384F82230F4
:10A7E0000023E37723766376A37684F82030626AC9
:10A7F00042F4E022626284F82330FCF729F9FCF786
:10A8000027FA4FF0FF33A362E362FCF71DFBFCF76E
:10A8100087FA1E481E4C00F0C9FDFCF7EFFCAC4265
:10A820002AD30120FFF720FF0220FFF71DFF01F0D0
:10A83000A5F8184B184C5C61184B059300250123B3
:10A84000174900954FF48062CDE90353CDE90155D6
:10A85000144B204600F062FD237C064623F00403DF
:10A860002046237405F018FA2846FFF771FF0D4AB9
:10A8700031462046FCF7D2F954F8043B9847CEE71E
:10A88000C01F002000ED00E07803030088070020CF
:10A890007403030094100020F0060020910C0300C4
:10A8A0004021002099A6020038B5064C064DAC4266
:10A8B00001D3002038BDD4E90112204604F0E2FFA4
:10A8C0001434F4E7BC030020D003002030B585B079
:10A8D000DDE90845034B0293CDE9004504F098FFFC
:10A8E00005B030BDC3C7020038B5064C064DAC42BA
:10A8F00000D338BD204604F0E3FF0028F9D11C3412
:10A90000F5E700BFA0030020BC03002073B50D468F
:10A91000EFF31181202484F31288C4684CB12C60B9
:10A920002368C360836901338361002081F3118848
:10A9300011E052EA030603D12C606FF00B00F5E73B
:10A94000CDE900230246083000F02EFF18B9034B72
:10A950009B685B692B6002B070BD00BF9410002043
:10A96000F7B50D4604469DF82010EFF3118720201F
:10A9700080F31288266AE06886423ED22668B44296
:10A980001AD0CEB1304604F0FAFF06F1180001F0FB
:10A9900077F954F8082F70692946002505F00AFB5D
:10A9A0003046C6F8905000F08BFD2046394600F046
:10A9B00083FE284603B0F0BDA26899B1E06929463C
:10A9C00005F0F8FAE369A26813446269E36193420F
:10A9D00001D12369E361236A01332362002087F3F5
:10A9E0001188E7E7A0692369984208BF6069801A67
:10A9F000A061294605F0DEFAEDE752EA03010BD02B
:10AA00000749896804F108004D61CDE90023394602
:10AA1000224600F0C9FECDE76FF02200DFE700BF5D
:10AA200094100020F7B504460846EFF31186202164
:10AA300081F31288216A00293BD0A268A16905F040
:10AA4000B9FAA369A268256813446269A3619342B5
:10AA500004BF2369A361236AAC4203F1FF3323627D
:10AA600036D02846002D34D004F089FF05F11800B7
:10AA700001F006F96969A268E06905F09BFAE369EB
:10AA8000A26813446269E361934204BF2369E361EE
:10AA9000236A0027013323622846C5F8907000F02E
:10AAA0000FFD04F10800314600F006FE384603B001
:10AAB000F0BD52EA03010FD0094989684861CDE928
:10AAC00000233146224604F1080000F06DFEEEE757
:10AAD000002086F31188EAE76FF02200F9E700BF53
:10AAE000941000202DE9F04F044685B09346EFF313
:10AAF0001189202282F31288DFF82081C168D8F8FA
:10AB0000082061B18068904209D05BEA030123D13B
:10AB100089F311886FF00F0005B0BDE8F08F0131A7
:10AB20000129C4E902210FD1D8F80830DA6F12B92F
:10AB30009A7B83F8882000212161D3F8801004F1EA
:10AB4000100229B9C3E91F2289F311880020E3E725
:10AB50000A60C3F88020F7E7C2F88440A56892F93C
:10AB60000EA095F90E209245A8BF924626461022C7
:10AB7000002795F90E10514509DDB0685146CDE921
:10AB8000022304F010FFDDE902233843C7B2D5F8F1
:10AB900084604EB1297C890706D5B44204D0013ABD
:10ABA00002D0B568002DE4D1CDE900B31C4822469F
:10ABB000494600F0F9FD20B9D8F80830C3F8840000
:10ABC000C4E7EFF31185202383F31288D8F8083007
:10ABD0000022C3F88420A068D0B190F98810C36F18
:10ABE0004BB904F0E0FE98B10D48294600F064FD31
:10ABF0006FF00A0090E71C4654F8102DA24205D0D1
:10AC000022B192F90E209142A8BF11461B68E7E7D6
:10AC1000002FE9D185F31188EAE700BF94100020E6
:10AC2000FE1000202DE9F04183680546002B00F05E
:10AC3000848045488268934240F08280EB68012B13
:10AC400004D9013BEB600020BDE8F081EFF31187F0
:10AC5000202383F312888368DA6F05F11006002140
:10AC600062B1964227D12A69E9B9D3F88010DA6730
:10AC70008E4201D1C3F8802000232B61836893F9B1
:10AC8000881093F90E208A4204D0DB6FB3B9A8680C
:10AC900004F089FE2C68A5421DD10023C5E90233CA
:10ACA00087F31188CFE70A60D3F88020964208BF67
:10ACB000C3F88010E0E711461268D1E7184650F853
:10ACC000102D824205D022B192F90E209142A8BFE8
:10ACD00011461B68DAE7002CDFD0D4E9003213609C
:10ACE0005A60237C4FF0000823F002032374C4E968
:10ACF0000088C4F8088004F1180000F0C1FFAC60BF
:10AD0000E36F13B9A37B84F88830C5F81080D4F8BA
:10AD1000803073B9C4E91F6600232046C4F884302C
:10AD2000C4F8903000F0CCFB0848394600F0C4FC71
:10AD300089E71E60C4F88060EEE76FF0150083E7D6
:10AD40004FF0FF3080E700BF94100020FE1000207D
:10AD500037B5EFF31185202181F3128804688CB197
:10AD60002368426823F003039442036008BF4360F2
:10AD70000121204604F034FE044685F31188204664
:10AD800003B030BD52EA0301F7D00830CDE900230B
:10AD90002946024600F008FD0028F0D1014B9B68CF
:10ADA0005C69ECE79410002070B5EFF31186202366
:10ADB00083F31288046884421CD0DCB1D4E90032E9
:10ADC00013605A60237C002523F002032374C4E936
:10ADD0000055A56004F1180000F052FF2046C4F8A9
:10ADE0009050656100F06CFB31460748BDE870404B
:10ADF00000F062BCD0E902329A4218BF013383608E
:10AE000086F3118870BD00BFFE10002013B5EFF36C
:10AE10001181202484F31288846834B1013C846059
:10AE200081F31188002002B010BD52EA030404D15E
:10AE300081F311886FF00F00F5E7CDE9002302469A
:10AE4000014800F0B1FCEEE7FE100020F8B5064620
:10AE5000EFF31187202383F3128800233468A6427E
:10AE60001AD0CCB1D4E9003213605A60237C00259B
:10AE700023F002032374C4E90055A56004F118000F
:10AE800000F0FEFE6FF00A03C4F8903065612046C2
:10AE900000F016FB0123E1E70022B2602BB1394636
:10AEA0000348BDE8F84000F007BC87F31188F8BDFF
:10AEB000FE1000202DE9F04FDFF8788185B00446C0
:10AEC0004FF0FF364FF0FF37EFF31189202383F364
:10AED0001288D4F89C50D4F8B43055BB23F0040247
:10AEE0005807C4F8B420C3F3800171D504F1AC0B4A
:10AEF000D4F8AC505D4574D0002D72D0D5E9003245
:10AF000013605A602B7C4FF0000A23F002032B746D
:10AF1000C5E900AAC5F808A005F1180000F0B0FEC8
:10AF20000123C5F89030C5F814A0284600F0C8FAEF
:10AF3000DEE7D4F8A0202968C4F89C10954243F0BD
:10AF4000020308BFC4F8A010C4F8B430EB6823F0C3
:10AF5000040343F00103EB606B6889F31188284612
:10AF60009847EFF31189202383F31288EB68D90601
:10AF700023F0010240D4EA60EB689A071AD5D8F8AA
:10AF8000000023F00203EB60A0B10268002188B149
:10AF900043689D4240D10368B1BBD8F80420C8F88B
:10AFA0000030904201D1C8F80430002340F8083B3B
:10AFB000FFF7FAFED4F8B43023F00203C4F8B4303B
:10AFC000DB0502D4D4F89C3073BB89F311887BE78E
:10AFD000D00606D5C4F8B41089F3118805B0BDE8D1
:10AFE000F08F0023CDE90067029304F1A4024946E3
:10AFF000114800F0EFFC67E723F01103EB6005F167
:10B000001000FFF7D1FEB7E70B60D8F80430984284
:10B0100008BFC8F80410C8E701461AB11368104603
:10B020001A46B4E71346FAE789F3118804F020FEC4
:10B030004AE700BFB4100020FE100020F8B5C56834
:10B04000AB0704460F4644D46E0737D40B680BB9E0
:10B0500083680B60237BD80744BFA3683B603E68CE
:10B060004CBF0225012566B31C4B9A68D6F8983070
:10B070009A421DD104F0BCFD80F00100C0B2D6F8A8
:10B08000B430D90720D55A0721D510B30023236047
:10B09000D6F8A03073B9C6E92744304604F05BFD0A
:10B0A000E36843F00403E3603B68A3602846F8BD0F
:10B0B0000020E4E71C60C6F8A040EEE7C5F34005B9
:10B0C00009E06FF0150506E06FF0120503E01B07BD
:10B0D000DCD56FF00F0500233B60E7E794100020FC
:10B0E00037B501900846EFF31185202383F31288CA
:10B0F00001A9FFF7A3FF041E06DD0548294600F05D
:10B10000DBFA204603B030BD85F31188F9E700BFB4
:10B11000FE10002001460148FFF7E2BF4008002072
:10B12000F0B589B004460020C4E927000E9D04F163
:10B13000A400C4E9290004F1AC00C4E92B0055B314
:10B140002879002840F2011008BF0120C4F8B4009B
:10B1500000204FF0FF364FF0FF37CDE90330CDE947
:10B160000100CDE906670D4B0094204600F032F94E
:10B1700055B1296811B1204604F040FD6B791BB12F
:10B18000A38943F00103A381204604F03CFDC4F8E9
:10B19000984009B0F0BD0120D8E700BFB5AE02006D
:10B1A00037B501900846EFF31184202181F312880E
:10B1B000C16811F01E0F14D153EA020506D101A98E
:10B1C000FFF73CFF84F3118803B030BD41F0080164
:10B1D000C160019981620449103000F0BFFC012078
:10B1E000F0E70020EEE700BF97FB020001460148B0
:10B1F000FFF7D6BF40080020F0B585B00C4601909F
:10B2000016461D46EFF31183202282F3128803A90C
:10B210002046039304F082FC55EA0603039F07D1FE
:10B2200001A92046FFF70AFF87F3118805B0F0BD9A
:10B23000E168019BA36241F00801E16032460449E4
:10B240002B4604F1100000F089FC0120ECE700BF60
:10B2500097FB020001460148FFF7CEBF40080020DF
:10B260002DE9F0418046EFF31187202383F3128804
:10B270000026D8F80040A04518D0BCB1D4E900326F
:10B2800013605A60237C002523F002032374C4E971
:10B290000055A56004F1180000F0F2FCC4F89050CD
:10B2A0006561204600F00CF90136E2E726B987F324
:10B2B00011883046BDE8F0810248394600F0FCF9BB
:10B2C000F7E700BFFE1000202DE9F3411C4652EACB
:10B2D000040380460D4616461AD0EFF3118720234B
:10B2E00083F312880846FFF79DFCCDE900644246CF
:10B2F0003946094800F058FA04464FF0FF324FF043
:10B30000FF332846FFF7EEFB204602B0BDE8F08190
:10B310006FF00A04F8E700BFFE100020F0B5073216
:10B3200085B022F0070204467F320E9D0D9EA58156
:10B33000583022F03F020027C4E9160004250020FF
:10B34000A6733F2A4FF00006C4E90867C4E9060067
:10B35000A0602574E07301F14007A2F1400603D814
:10B3600080F31188284602DF8D18A27B84F888209C
:10B37000C4E91B760C9A0026C4E91F666667C4F808
:10B38000846002920B9A01920A9A009220462A4601
:10B39000FBF712FC044B66659B6803B19B6FA367C8
:10B3A000284605B0F0BD00BF9410002001230374AF
:10B3B00083810023C0E91F33C0E91B33C0F8843008
:10B3C0008367034B827B80F888209860704700BFBA
:10B3D00094100020F0B587B000270597109F0497C0
:10B3E0000F9F03970E9F0297DDE912650D9F01974E
:10B3F0000C9F00970446FFF791FF55EA060305D11D
:10B40000204604F000FC204607B0F0BD32462B4633
:10B4100004F11800014900F0A1FBF4E723FD02004C
:10B420000A4A93686FF00A01C3F890100849C3F8FC
:10B430008C004B6843F080534B60002383F31188EA
:10B44000BFF36F8F9368D3F890007047941000207B
:10B4500000ED00E038B5184CA168E0690B68814246
:10B4600014BF1A46002249680B605960A368E1695D
:10B470002AB9124AC3E900210B60E3610AE092F99C
:10B480000E5093F90E00854212DD5168C3E9002188
:10B490000B605360A569094B9D4200D005B9E56872
:10B4A000A3689D4202D0284604F09AFC656138BD2D
:10B4B0008A42DED01268DBE794100020AC10002036
:10B4C00070B5037C13F09F0F2DD11C4C63F07F03EC
:10B4D0002246037452F8183F934225D1E169C0E92E
:10B4E00000210860E0610FE08B42F8D01B68002B60
:10B4F000F5D093F90E6090F90E50AE42F4DD596824
:10B50000C0E9003108605860A569954200D005B9CE
:10B51000E568A3681A7CD20608D1DA897F2A05D9A2
:10B52000AA691AB9636170BDE169E0E7AB4202D074
:10B53000284604F055FC6561F5E700BF9410002033
:10B5400038B590F91020037C002A014604DA03F094
:10B550007F03037404F08EFB0D4D2A46AB6852F84E
:10B56000184F944200D004B9EC688B4207D01A7C83
:10B57000D20604D1DA897F2A01D9A2692AB1A3426D
:10B5800002D0204604F02CFC23466B6138BD00BF7E
:10B59000941000202DE9F843002A027C0CBF4FF0E4
:10B5A00010084FF0080818EA020F04460D465DD156
:10B5B00048EA0203D2090AD10374B8F1080F70D126
:10B5C000A36813B1204604F05DFB20270BE003F0D5
:10B5D0007F03037404F04EFBEFE785F31188EFF36C
:10B5E000118587F3128804F1180000F049FB0B3035
:10B5F000F3D0A66D04F15807B74211D04FF00009FF
:10B6000076B1304604F03EFBC6F8909006F1180083
:10B6100000F036FB3046FFF753FFA66DB742EFD17F
:10B62000234B9B689C423CD1EFF30587003F18BF3A
:10B630000127DFF87C904B4653F8186F9E4200D0EC
:10B640000EB9D9F80C60D9F80830B34202D03046B0
:10B6500004F0C6FBB8F1100FC9F8146006D02046FC
:10B6600001F02DFB17B11348FFF7A0FE104B9B68AC
:10B67000A34218D1EFF30583ABB9227BD2070BD5D8
:10B6800085F3118883F311880423184602DFEFF352
:10B690001185202383F312882846BDE8F843FFF77D
:10B6A000BFBE0027C5E785F31188BDE8F88300BF5A
:10B6B000941000208807002049B9EFF3058030B9C5
:10B6C000044B5A699B689A4201D0FFF7A9BE81F3E7
:10B6D000118870479410002001460148FFF7ECBF25
:10B6E000FE10002070B50F4D2B46064653F8184F3C
:10B6F0009C4200D004B9EC68AB681A7CD20604D135
:10B70000DA897F2A01D9A2692AB1A34202D0204650
:10B7100004F066FB23466B613046BDE87040FFF7DE
:10B72000DBBF00BF9410002070B5EFF3118620231B
:10B7300083F312881A4CA168E0690B68814214BF38
:10B740001A46002249680B605960A368E1692AB96A
:10B75000144AC3E900210B60E3610AE092F90E503C
:10B7600093F90E00854216DD5168C3E900210B6094
:10B770005360A5690B4B9D4200D005B9E568A368ED
:10B780009D4202D0284604F02BFB65613046BDE89F
:10B790007040FFF745BE8A42DAD01268D7E700BF93
:10B7A00094100020AC100020F8B5DDE906670D46C6
:10B7B000EFF305832BB1002383F31188042318468C
:10B7C00002DF0D4B0D4998680860EFF311812021CD
:10B7D00081F312889C681146204604F068FA3246CC
:10B7E0003B4604F11800064900F0B8F92846BDE8C8
:10B7F000F840FFF715BE00BF94100020BC100020D9
:10B8000023FD0200F8B50446EFF31187202383F3EC
:10B810001288037C03F01F02B2FA82F6760949B25D
:10B820001AB39B0704D4817387F311883046F8BD9F
:10B83000856804F01FFA81732B689D4200D02BB9F4
:10B840006B68C4E900531C606C60EDE793F90E204F
:10B850008A4204DC6A689342F2D01B68EFE75A68B8
:10B86000C4E9003214605C60DEE703F07F03037418
:10B8700004F000FA174D037C817363F07F032A46BE
:10B88000037452F8183FE86993421AD1C4E90020C2
:10B890000460EC61AC69944209D1EC68AB689C42ED
:10B8A00001D16C61C0E7204604F09AFAF9E7002C58
:10B8B000F4D1F2E793F90EC08C4505DC8342E5D064
:10B8C0001B68002BF6D1E1E75968C4E900310C6030
:10B8D0005C60DFE79410002051EA00032DE9F04797
:10B8E00006460D460746884605D104F0C1F938469C
:10B8F0004146BDE8F087EFF31189202383F31288D6
:10B90000DFF868A01A4BDAF808001860FFF718FE95
:10B91000DAF80800174932462B46183000F01EF9B5
:10B92000DAF808301A7CC3F88C9042F004021A74DA
:10B930006FF00A02C3F890200F4A536843F0805317
:10B9400053600446002383F31188BFF36F8FB5F172
:10B95000FF3F08BFB6F1FF3FC9D004F06AFA201AD2
:10B9600020EAE0774FEAE778C1E700BF94100020B3
:10B97000BC10002023FD020000ED00E0024B03F1AB
:10B980001802C3E90622704794100020EFF31181DA
:10B99000202383F31288044B9A68D37B013BD37333
:10B9A00081F31188704700BF94100020EFF31180DD
:10B9B000202383F31288034B9A68D37B0133D3731C
:10B9C000FFF790BE94100020014B9868704700BFAD
:10B9D00094100020D3B5DDE90667089CCDE9006727
:10B9E000FFF7E2FE1CB1034B9B685B69236002B06A
:10B9F000D0BD00BF94100020027C12F01F0211D1B4
:10BA00000A4B98420ED00A4B1B684BB1C1897F2963
:10BA10000AD8084A90F90E1012689142B8BF002364
:10BA2000184670470023FBE71346F9E75806002045
:10BA300020030020C4100020094BBFF35B8FC01A05
:10BA4000084BC0105843084B012203EB800353E816
:10BA5000001F43E800200028F9D1BFF35B8F704737
:10BA600020080020ABAAAAAAC0100020F8B5144BE9
:10BA7000144D1E7C182303FB06550446284600F08F
:10BA8000FFF8114B03EB86076CB1BFF35B8F53F8E4
:10BA90002630BFF35B8F03B1013C0C492246E3170C
:10BAA000284600F05BF8BFF35B8F002357E8002FB8
:10BAB00047E800310029F9D1BFF35B8FF8BD00BF23
:10BAC0009410002020080020C010002039BA020085
:10BAD000F8B5EFF31186202383F31288144D154B2C
